:0200000480007A
:100000007370043073504030971100109381819CBD
:1000100017010110130101FF970200009382C268CB
:100020007390523073F051301705000013054509E5
:10003000970500009385C5086300B5021786000088
:100040001306868363FAC5008322050023A05500AA
:1000500011059105E3EAC5FE178500001305C5816A
:1000600097050010938505FA1386418663FAC5004B
:100070008322050023A0550011059105E3EAC5FE82
:1000800013854186938581996377B5002320050008
:100090001105E36DB5FEEF00B02C17250000130528
:1000A000E5FCEF10B07BEF10907FEF007039014559
:0A00B00081452920EF00106A01A02D
:1000BC007171977700009387271803AE070003A38D
:1000CC00470083A8870003A8C7008C4BD04B944FE4
:1000DC00D84F06D783A0070217750000130545EA11
:1000EC00F2D69AD8C6DAC2DCAEDE32C136C33AC515
:1000FC0006C722D526D34AD14ECF52CD56CBEF20B0
:10010C009031177500001305A5EAEF20D030F322CB
:10011C0020B896D0F32320B09ED2732420B8A2D45A
:10012C00865426556385A400732920B0CAD2A657DD
:10013C009659732A00B8D2CAF32A00B0D6CCF32E43
:10014C0000B8F6CE564FF64F6305FF01F32700B00B
:10015C00BECCF647E810E644EF00D05F732E20B813
:10016C00F2C4732320B09AC6F32820B8C6C8264818
:10017C00C6456305B800732620B0B2C6C6473647DD
:10018C00F32600B836DEF32000B086C0F32200B8A8
:10019C0096C2F253164463858300732500B0AAC03F
:1001AC009647177500001305E5E3330437410649FC
:1001BC00EF20702617750000130585DCEF20B025A5
:1001CC0017750000130545E2EF20F024B3049940A5
:1001DC00F32920B84ED8732A20B052DAF32A20B86B
:1001EC0056DCC25E625F6385EE01F32F20B07EDACF
:1001FC00E2575259F32700B83ED2732E00B072D496
:10020C00732300B81AD69258325863850801F32527
:10021C0000B02ED4B257E810225AEF106042732669
:10022C0020B832CC732720B03ACEF32620B836D083
:10023C00E242825363857200F32020B006CE8257CF
:10024C00F249732500B82AC6F32A00B056C8F32E1B
:10025C0000B876CA324FD24F6305FF01F32700B0C6
:10026C003EC8D24717750000130585D1C24AEF204E
:10027C00901A17750000130525DAEF20D0191775A1
:10028C0000001305E5DAEF2010192686A2851775F4
:10029C0000001305A5DAEF205003177500001305B5
:1002AC00E5DBEF20501733864A41B385294117759A
:1002BC0000001305A5D8EF20500117750000130599
:1002CC00A5DAEF205015177500001305E5DCEF20BB
:1002DC00901417750000130565DFEF20D013177508
:1002EC0000001305E5E1EF2010131775000013054E
:1002FC0065E4EF205012177500001305E5E6EF20BA
:10030C00901117750000130565E9EF20D0101775D3
:10031C0000001305E5EBEF20101017750000130516
:10032C0065EEEF20807ABA502A549A540A59FA4949
:10033C006A4ADA4A01454D6182800000A54723A232
:10034C00F1867D55828000007300501073005010B0
:10035C007300501073005010730050107300501045
:10036C007300501073005010C5B700007D15854701
:10037C0063E8A7000963014523A2650082800100A0
:10038C00A5427D5523A251868280000005458280BE
:10039C00000000000545828000000000D94723A220
:1003AC00F1867D55828000000145828000000000AE
:1003BC0001C57D558280010041113735011022C4E1
:1003CC0006C62E840129AA872300F400B2402244D9
:1003DC000545410182800000170700101307C7DE96
:1003EC001C43938681993E95636CD50097F200105F
:1003FC009382824063E6A20008C33E85828001009E
:10040C00FD573E858280000001114AC84EC606CEBB
:10041C0022CC26CA52C42E89B289EF20B001630ABD
:10042C0005264A84330A39016386090AB3072A412F
:10043C0093F07700A9446389001205476382E008B2
:10044C008942638750060D43638C6004914363813A
:10045C00700415456386A0029945638BB0008345F3
:10046C0009006381952237350110192613041900F0
:10047C00834504006381952037350110D52C050484
:10048C00834504006382951E37350110D52405047D
:10049C00834504006383951C37350110D12C05046A
:1004AC00834504006384951837350110D124050465
:1004BC0083450400638C951837350110552C0504C1
:1004CC0083450400638C95160504373501104D24C3
:1004DC00631C44094E85F2406244D2444249B249FD
:1004EC00224A056182800100B54537350110492447
:1004FC00834504003735011013091400952C8345EE
:10050C00140063809508373501109D24834519002C
:10051C006386950837350110A12C83452900638C1F
:10052C00950837350110A924834539006382950A53
:10053C0037350110352C834549006388950A3735CA
:10054C0001103D2483455900638E950A37350110FF
:10055C000524834569006384950C130479003735B1
:10056C0001103924E30844F783450400E38E95F623
:10057C0037350110F52A8345140013091400E39450
:10058C0095F8B54537350110E5228345140037350C
:10059C000110F92A83451900E39E95F6B5453735C8
:1005AC000110F9228345190037350110D1228345FA
:1005BC002900E39895F6B54537350110552A834542
:1005CC002900373501106D2283453900E39295F6E9
:1005DC00B54537350110692A834539003735011087
:1005EC00412A83454900E39C95F4B5453735011004
:1005FC00412283454900373501109D2A8345590016
:10060C00E39695F4B545373501109D228345590085
:10061C0037350110B12A83456900E39095F4B5454F
:10062C0037350110B1228345690005BFB545373513
:10063C0001103D2A8345040085BD0100B5453735C1
:10064C0001103D228345040041B50100B545373505
:10065C000110392A8345040085B5B545373501109D
:10066C00012A834504000DBDB5453735011009221B
:10067C008345040011BDB54537350110D528834598
:10068C000400DDBBB54537350110DD20834509007D
:10069C00D9BB7D5589B500005D7106C012C216C468
:1006AC001AC61EC82ACA2ECC32CE36D03AD23ED466
:1006BC0042DC46DEF2C0F6C2FAC4FEC6F3221034A7
:1006CC0016D6F322203416D8F322003016DA73250E
:1006DC0020348A855129B25273901234C2527390CD
:1006EC002234D2527390023082401242A2423243E0
:1006FC00C2435245E245724682561257A25762587F
:10070C00F258064E964E264FB64F6161730020305C
:10071C00AA8719C5584D0145D98DCCCF82800100CF
:10072C007D55828000000000AA871DCD17070010A0
:10073C000327C7A9B355B702930200082326550017
:10074C001308600C8D4801451383F5FF9353830008
:10075C0013F6F30FD0C39376F30F94C323A40701BE
:10076C0023A61701828001007D55828000000000C5
:10077C00AA8739CDD84B937207026398020403A35E
:10078C0047019373030263920304C84B137605026B
:10079C000DEED44B13F806026319080283A8470127
:1007AC0013FE080263130E0283AE470113FF0E0201
:1007BC00631D0F0083AF470113F70F0219E783A2E4
:1007CC00470113F30202E30703FA01458CC382804D
:1007DC007D55828025C15C4993F217006397020412
:1007EC000323450193731300639103044C4913F6DF
:1007FC00150005EE544913F7160005EB03284501C7
:10080C009378180063930802032E4501937E1E0013
:10081C00639D0E00032F4501937F1F0063970F000C
:10082C005C4993F21700E38802FA08411375F50F3F
:10083C00828001001305F00F82800000B7C7000210
:10084C0003A787FF83A7C7FF411106C622C426C290
:10085C0037C60002032886FF8328C6FFF32600B0A4
:10086C00631A0707032886FF8328C6FFF32600B008
:10087C0063120707032886FF8328C6FFF32600B000
:10088C00631A0705032886FF8328C6FFF32600B0EA
:10089C0063120705032886FF8328C6FFF32600B0E2
:1008AC00631A0703032886FF8328C6FFF32600B0CC
:1008BC0063120703032886FF8328C6FFF32600B0C4
:1008CC00631A0701032886FF8328C6FFF32600B0AE
:1008DC00E30207F9B7C0000283A280FF83A6C0FF22
:1008EC00732700B0631A580603A580FF83A5C0FFC9
:1008FC00732700B06312A80603A380FF83A5C0FF73
:10090C00732700B0631A680483A380FF83A5C0FF1C
:10091C00732700B06312780403A480FF83A5C0FF83
:10092C00732700B0631A880283A480FF83A5C0FFDD
:10093C00732700B06312980283A680FF83A5C0FFC3
:10094C00732700B0631AD80083A880FF83A5C0FF6B
:10095C00732700B0E30218F983A680FF83A7C0FFBA
:10096C00B7C50002368E83AE85FF83A7C5FF732FF4
:10097C0000B0631BDE0783AE85FF83A7C5FF732F13
:10098C0000B06313DE0783AE85FF83A7C5FF732F0B
:10099C0000B0631BDE0583AE85FF83A7C5FF732FF5
:1009AC0000B06313DE0583AE85FF83A7C5FF732FED
:1009BC0000B0631BDE0383AE85FF83A7C5FF732FD7
:1009CC0000B06313DE0383AE85FF83A7C5FF732FCF
:1009DC0000B0631BDE0183AE85FF83A7C5FF732FB9
:1009EC0000B0E302DEF90100B7CF000213073006B6
:1009FC0083A78FFF83A6CFFF3384D741F32400B0A6
:100A0C006368870803A68FFF83A6CFFF3304D64104
:100A1C00F32400B0636E870603A88FFF83A6CFFF75
:100A2C003304D841F32400B06364870683A08FFF9E
:100A3C0083A6CFFF3384D041F32400B0636A8704CC
:100A4C0083A28FFF83A6CFFF3384D241F32400B05F
:100A5C006360870403A58FFF83A6CFFF3304D541C2
:100A6C00F32400B06366870203A38FFF83A6CFFF36
:100A7C003304D341F32400B0636C870083A38FFF4E
:100A8C0083A6CFFF3384D341F32400B0E37287F6FF
:100A9C00B384E441B3F88402228681461395F800AE
:100AAC0093D51801EF10C024B3D68402B24022446F
:100ABC00924441019395F6002E958280000000002F
:100ACC00411122C42A84176500001305E53E06C6B1
:100ADC00EF206014A285176500001305253FEF1069
:100AEC00D07EF3251034176500001305253FEF1059
:100AFC00D07DF3253034176500001305253FEF102A
:100B0C00D07C01A000000000411122C42A8417658A
:100B1C0000001305A53E06C6EF20E00FA285176561
:100B2C0000001305A53AEF10507AF3251034176521
:100B3C0000001305A53AEF105079F3253034224408
:100B4C00B240176500001305653A41016F10F0774C
:100B5C0000000000B7B7C4049382074017F7FF0FDB
:100B6C002326576682800000411106C622C4AA873C
:100B7C006358050213184501935848012D4E6383A1
:100B8C00C807939E2800138F4187B30FDF0183A7FB
:100B9C000F0091C38297B2402244014541018280EB
:100BAC009316450193D0460129462E87636416029D
:100BBC00939220009383C189338453000323040050
:100BCC00E30B03FCBA853E850293B24022440145F7
:100BDC0041018280170300001303C3EEBA853E85E2
:100BEC000293E5B7732740F1B700200C9316C700AA
:100BFC00138640003383C60003240300C142E3EC98
:100C0C0082F8931324001388818CB308780003AE08
:100C1C00080063030E00029E732540F1B70E200CF2
:100C2C009315C500138F4E00B38FE50123A08F00E1
:100C3C009DB70000411106C622C40931AA8717F4DA
:100C4C00FF0F1304A458B7050300372501101CC06F
:100C5C00C134F1659385052037350110F1341766E1
:100C6C0000001306E62A976500009385252B17656F
:100C7C0000001305652BEF105065976500009385F8
:100C8C00252D176500001305E52CEF1010640C40A2
:100C9C00176500001305452DEF1030639702000017
:100CAC009382C2E61387818C17060000130686E137
:100CBC009386C1891383418790C2D0C290C6D0C697
:100CCC0090CAD0CA90CED0CE90D2D0D290D623207B
:100CDC00570023225700232457002326570023288C
:100CEC005700232A5700232C5700232E570023206C
:100CFC005702232257022324570223265702232864
:100D0C005702232A5702232C5702232E5702232043
:100D1C00570423205300232253002324530023265B
:100D2C00530023285300232A5300232C5300232E33
:100D3C0053002320530223225302F32340F137287C
:100D4C00000C13957300B308050103AE0800B70E31
:100D5C00000C137FEEFF23A0E80123A00E00F32F5D
:100D6C0040F193977F00338407010C4013F6D5FFB5
:100D7C0010C023A20E00F32640F193927600338725
:100D8C000201032307009373B3FF2320770023A4EE
:100D9C000E00732540F193187500338E0801032F54
:100DAC000E00937F7FFF2320FE0123A60E00F32766
:100DBC0040F113947700B305040190419376F6FE4D
:100DCC0094C123A80E00F32240F113977200330351
:100DDC0007018323030013F5F3FD2320A30023AAAB
:100DEC000E00F32840F1139E7800330F0E01832F71
:100DFC000F0093F7FFFB2320FF0023AC0E0073249E
:100E0C0040F193157400B386050190429372F6F786
:100E1C0023A0560023AE0E00732740F11313770066
:100E2C00B303030103A503009378F5EF23A013018B
:100E3C0023A00E02732E40F1131F7E00B30F0F017F
:100E4C0083A70F0013F4F7DF23A08F0023A20E0259
:100E5C00F32540F193967500B382060103A60200B8
:100E6C001377F6BF23A0E20023A40E02732340F1F4
:100E7C0093137300B388030103AE08007D7F130541
:100E8C00FF7FB37FAE0023A0F80123A60E02F32749
:100E9C0040F113947700B30604018C429302FFFFD8
:100EAC0033F6550090C223A80E02732740F113139A
:100EBC007700B303030183A80300797E130FFEFFB1
:100ECC0033F5E80123A0A30023AA0E02F32F40F16F
:100EDC0093977F00338407011440F1759382F5FFDB
:100EEC0033F6560010C023AC0E02732740F11313D7
:100EFC007700B303030183A80300617E130FFEFF89
:100F0C0033F5E80123A0A30023AE0E02F32F40F12A
:100F1C0093977F003E9803240800C1769385F6FFD3
:100F2C00B372B4002320580023A00E04F32E40F11A
:100F3C003707200CB24022441396CE003303E60050
:100F4C002320030041018280828000008280000007
:100F5C0082800000797123010100A301010002C409
:100F6C0002C602C802CA02CC02CE02C22301010090
:100F7C008347210006D622D426D24AD0094793F0C3
:100F8C00F70F2A84636217188946010002C2A30175
:100F9C0001008342310013F3F20F63EC66128343BA
:100FAC002100034631008344310093F5F30F139570
:100FBC0015003308B5009378F60F13F9F40F131ED0
:100FCC002800931E2900330FC401939F28001C1086
:100FDC003387D701B300FF01832287FE03A30000F0
:100FEC00B3836200232477FE03462100834431003F
:100FFC0092451375F60F13181500B308A80013F9D2
:10100C00F40F139E2800B30EC401131F2900B38FD5
:10101C00EE0183A70F003387F5003AC283403100FD
:10102C009382100013F3F20FA3016100834331008C
:10103C0013F6F30F63EFC608834421000345310018
:10104C000348310093F5F40F939815003389B800D9
:10105C00137EF50F937EF80F131F2900939F2E001C
:10106C00B307E40193102E001810B302F701338379
:10107C00170083A382FE03260300B384C30023A4BA
:10108C0092FE034521000348310092459378F50FF9
:10109C0013991800330E1901937EF80F131F2E00AD
:1010AC00B30FE40193972E00B380FF0003A7000059
:1010BC00B382E50016C2034331009303130013F609
:1010CC00F30FA301C1008344310013F5F40FE3F8CF
:1010DC00A6EC034821009245130E01029378F80FF9
:1010EC0013992800B30E2E0123AABEFE034F210034
:1010FC00930F1F0093F7FF0F2301F1008340210092
:10110C0013F7F00FE3F4E6E8176500001305051577
:10111C00EF10B01B2301010083462100894213F319
:10112C00F60F63E1620E976400009384E41409499E
:10113C0083432100268513F6F30F13182600B305FD
:10114C0004018C41EF107018834821002685138E02
:10115C001800937EFE0F2301D101034F2100937FD2
:10116C00FF0F6361F90B8347210093F0F70F13977F
:10117C002000B306E4008C42EF10301583422100AE
:10118C002685138312009373F30F2301710003461A
:10119C0021001378F60F636709078345210093F844
:1011AC00F50F139E2800B30EC40183A50E00EF109B
:1011BC00D011034F21002685930F1F0093F7FF0FCB
:1011CC002301F100034721009376F70F636CD902DA
:1011DC008340210093F2F00F13932200B3036400B9
:1011EC0083A50300EF10700E0345210013061500B4
:1011FC001378F60F230101018345210093F8F50FB5
:10120C00E37819F31765000013054507EF10F00B91
:10121C002301010083442100094913FEF40F63618B
:10122C00C90F97640000938424050949834E21005B
:10123C00268513FFFE0F931F2F00B307F401CC4735
:10124C00EF10B0080347210026859306170093F290
:10125C00F60F23015100034321009373F30F6361D5
:10126C00790A8340210013F6F00F13182600B305FA
:10127C000401CC45EF107005834821002685138EA0
:10128C001800937EFE0F2301D101034F2100937FA1
:10129C00FF0F6367F9078347210013F7F70F9316C6
:1012AC002700B302D40083A5C200EF101002034341
:1012BC00210026859303130013F6F30F2301C100BD
:1012CC00034821009375F80F636CB9028340210029
:1012DC0093F8F00F139E2800B30EC40183A5CE0023
:1012EC00EF10A07E03452100130F1500937FFF0F15
:1012FC002301F1018347210013F7F70FE378E9F29B
:10130C0017650000130585F7EF10207C2301010001
:10131C0083442100094993F6F40F6361D90E976455
:10132C000000938464F5094983422100268513F358
:10133C00F20F93132300330674000C4EEF10E07879
:10134C000348210026859305180093F8F50F230117
:10135C001101034E2100937EFE0F6361D90B834074
:10136C00210013FFF00F931F2F00B307F4018C4FD4
:10137C00EF10A0750347210026859306170093F202
:10138C00F60F23015100034321009373F30F63679E
:10139C007906034621001378F60F93152800B3083D
:1013AC00B40083A58801EF104072034E21002685FE
:1013BC00930E1E0013FFFE0F2301E101834F21004A
:1013CC0093F7FF0F636CF9028340210013F7F00FC2
:1013DC0093162700B302D40083A58201EF10E06EB0
:1013EC0003452100130315009373F30F23017100C0
:1013FC00034621001378F60FE37809F31765000014
:10140C00130545BEEF10300117650000130545E7C5
:10141C00EF10A06B230101000344210089441379D0
:10142C00F40F63E9240F176400001304E4E4894407
:10143C0083452100930E0102228593F8F50F139E2C
:10144C002800338FCE0183254FFFEF100068834FA8
:10145C002100228593871F0013F7F70F2301E1006A
:10146C008346210093F2F60F63E6540A8340210071
:10147C00101013F3F00F9313230033087600832519
:10148C0048FFEF1080640349210022859305190061
:10149C0093F8F50F23011101034E2100937EFE0FEB
:1014AC0063EAD407034F21001810937FFF0F939723
:1014BC002F00B306F70083A546FFEF1000618342AF
:1014CC0021002285138312009373F30F2301710003
:1014DC00034621001378F60F63EE040383402100CA
:1014EC009308010213F9F00F93152900338EB800FD
:1014FC0083254EFFEF10605D03452100930E150010
:10150C0013FFFE0F2301E101834F210093F7FF0F1F
:10151C00E3F0F4F22945EF10405F17650000130566
:10152C00E5D7EF10805AA301010003443100894430
:10153C001377F40F63EAE40E176900001309C9D39B
:10154C00094483463100930301024A8593F2F60F56
:10155C001393220033866300832586FEEF10E0563A
:10156C00034831004A859305180093F8F50FA30141
:10157C001101034E3100937EFE0F6367D40B834041
:10158C0031001C1013FFF00F931F2F00B384F701D1
:10159C0083A584FEEF106053034731004A85930600
:1015AC00170093F2F60FA30151000343310093731C
:1015BC00F30F636B74060346310093080102137832
:1015CC00F60F93152800338EB80083258EFEEF108E
:1015DC00C04F834E31004A85138F1E00937FFF0F3F
:1015EC00A301F1018347310093F4F70F636E94026A
:1015FC00834031009302010213F7F00F931627007A
:10160C003383D200832583FEEF10204C0345310039
:10161C009303150013F6F30FA301C1000348310027
:10162C009375F80FE37FB4F02945EF10004EB250DC
:10163C0022549254025901454561828000000000F9
:10164C00397102C602C802CA02CC02CE02D002D242
:10165C0002D422DC06DE26DA4AD82A8402D65C10B2
:10166C007BA00702230501008340A100094793F2E8
:10167C00F00F636F571289460343A1009373F30F66
:10168C009394130033857400931525003306B4002E
:10169C007B68060C8348A100930E010313F9F80F25
:1016AC00131E2900338FCE0123240FFF834FA1007B
:1016BC0093871F0093F0F70F230511000347A10038
:1016CC009372F70F63E6560E0343A1009373F30F67
:1016DC009394130033857400931525003306B400DE
:1016EC007B68060C8348A100930E010313F9F80FD5
:1016FC00131E2900338FCE0123240FFF834FA1002B
:10170C0093871F0093F0F70F230511000347A100E7
:10171C009372F70F63EE56080343A1009373F30F14
:10172C009394130033857400931525003306B4008D
:10173C007B68060C8348A10013F9F80F131E2900CF
:10174C00338FCE0123240FFF834FA10093871F00FB
:10175C0093F0F70F230511000347A1009372F70FC5
:10176C0063E856040343A1009373F30F939413009F
:10177C0033857400931525003306B4007B68060C82
:10178C008348A10013F9F80F131E2900F29E23A41D
:10179C000EFF034FA100930F1F0093F7FF0F2305BC
:1017AC00F1008340A10013F7F00FE3F7E6EC010022
:1017BC0074007BA0060417650000130525AAEF1022
:1017CC00C030230501008342A100094393F3F20FBB
:1017DC006362730E97640000938404AA09498345DD
:1017EC00A100268513F6F50F13182600B308040183
:1017FC0083A50800EF10602D034EA1002685930EE3
:10180C001E0013FFFE0F2305E101834FA10093F788
:10181C00FF0F6361F90A8340A10013F7F00F9316D1
:10182C002700B302D40083A50200EF10002A034363
:10183C00A10026859303130093F5F30F2305B10044
:10184C000346A1001378F60F636609078348A100CD
:10185C0013FEF80F931E2E00330FD40183250F00B7
:10186C00EF10A026834FA100268593871F0013F746
:10187C00F70F2305E1008346A10093F2F60F636B8B
:10188C0059028340A10013F3F00F93132300B30507
:10189C0074008C41EF1060230345A1001306150062
:1018AC001378F60F230501018348A10013FEF80FEE
:1018BC00E377C9F3176500001305459CEF10E02092
:1018CC00230501008344A100094993FEF40F6363CF
:1018DC00D90F976400009384249A0949034FA100FF
:1018EC002685937FFF0F93972F003307F4004C4707
:1018FC00EF10A01D8346A10026859382160013F3DA
:10190C00F20F230561008343A10093F5F30F63638A
:10191C00B90A8340A10013F6F00F13182600B30880
:10192C00040183A5C800EF10401A034EA1002685C0
:10193C00930E1E0013FFFE0F2305E101834FA10040
:10194C0093F7FF0F6368F9060347A1009376F70F2F
:10195C0093922600330354008325C300EF10E01646
:10196C008343A10026859385130013F6F50F2305F9
:10197C00C1000348A1009378F80F636D19038340ED
:10198C00A10013FEF00F931E2E00330FD4018325FC
:10199C00CF00EF1080130345A100930F150093F7B0
:1019AC00FF0F2305F1000347A1009376F70FE377B0
:1019BC00D9F20100176500001305458CEF10E010FB
:1019CC00230501008344A100094993F2F40F6361DC
:1019DC00590E976400009384248A09490343A1009B
:1019EC0026859373F30F939523003306B4000C4EA6
:1019FC00EF10A00D0348A10026859308180013FED4
:101A0C00F80F2305C101834EA10013FFFE0F636184
:101A1C00E90B8340A10093FFF00F93972F0033073E
:101A2C00F4000C4FEF10600A8346A10026859382C8
:101A3C00160013F3F20F230561008343A10093F505
:101A4C00F30F6367B9060346A1001378F60F9318DA
:101A5C002800330E140183258E01EF100007834EEE
:101A6C00A1002685138F1E00937FFF0F2305F10124
:101A7C008347A10013F7F70F636CE9028340A100C1
:101A8C0093F6F00F939226003303540083258301C1
:101A9C00EF10A0030345A1009303150093F5F30F7A
:101AAC002305B1000346A1001378F60FE37809F380
:101ABC001755000013050553EF10E01517550000DE
:101ACC001305057CEF106000230501000344A10001
:101ADC0089441379F40F63E9240F1754000013049D
:101AEC00A47989448348A100130F0103228513FEB6
:101AFC00F80F931E2E00B30FDF0183A58FFEEF00AE
:101B0C00D07C8347A1002285138717009376F70FAB
:101B1C002305D1008342A10013F3F20F63E6640A9C
:101B2C008340A100101893F3F00F93952300330812
:101B3C00B600832588FEEF0050790349A100228569
:101B4C009308190013FEF80F2305C101834EA10061
:101B5C0013FFFE0F63EAE407834FA100181893F7F5
:101B6C00FF0F93962700B302D70083A582FEEF00E8
:101B7C00D0750343A10022859303130093F5F30F53
:101B8C002305B1000346A1001378F60F63EE04039E
:101B9C008340A100130E010313F9F00F93182900D1
:101BAC00B30E1E0183A58EFEEF0030720345A1001B
:101BBC00130F1500937FFF0F2305F1018347A1003D
:101BCC0093F6F70FE3F0D4F22945EF001074175594
:101BDC0000001305A56CEF00506FA3050100034432
:101BEC00B10089441377F40F63E9E40E1759000030
:101BFC001309896809448342B1000C184A8513F310
:101C0C00F20F93132300338675008325C6FDEF0076
:101C1C00D06B0348B1004A859308180013FEF80FE7
:101C2C00A305C101834EB10013FFFE0F6367E40BE4
:101C3C008340B100141893FFF00F93972F00B384D7
:101C4C00F60083A5C4FDEF0050680347B1004A8538
:101C5C009302170013F3F20FA30561008343B10045
:101C6C0093F5F30F636BB4060346B100130E010337
:101C7C001378F60F93182800B30E1E0183A5CEFD22
:101C8C00EF00B064034FB1004A85930F1F0093F728
:101C9C00FF0FA305F1008346B10093F4F60F636EBA
:101CAC0094028340B1001303010313F7F00F931256
:101CBC002700B303530083A5C3FDEF001061034558
:101CCC00B1009305150013F6F50FA305C1000348E9
:101CDC00B1009378F80FE37014F32945EF00F0622C
:101CEC00F2506254D2544259014521618280000065
:101CFC00AA88AE8732883685468363960620975627
:101D0C0000009386665B63FFC50A41676375E60A4C
:101D1C001307F00F3337C7000E073355E600AA96AA
:101D2C0083C60600130500023697B306E540630B25
:101D3C00E500B395D70033D7E8003318D600D98D1A
:101D4C003393D80093580801B3D615031316080122
:101D5C0041829357030133F715033685B305D60239
:101D6C004207D98F63FCB700C2971385F6FF63E770
:101D7C00070163F5B7001385E6FFC2978D8F33F724
:101D8C001703420313530301B3D7170342073363FB
:101D9C006700B306F6023E86637BD300429313863C
:101DAC00F7FF636603016374D3001386E7FF4205F4
:101DBC00518D81455DA8370500014147E36FA6F4BD
:101DCC006147A1BF01E605473358C7024167637FEE
:101DDC00E8081307F00F6373070121453357A80078
:101DEC00BA9603C70600130600022A97B306E6400C
:101DFC006315E608B3870741854593580801131608
:101E0C000801418213570301B3F61703B3D7170325
:101E1C00C206558F330EF6023E85637CC70142978E
:101E2C001385F7FF636707016375C7011385E7FF28
:101E3C0042973307C741B377170342031353030188
:101E4C0033571703C20733E36700B306E6023A863B
:101E5C00637BD30042931306F7FF6366030163743D
:101E6C00D3001306E7FF4205518D8280370700012E
:101E7C004145E365E8F6614595B73318D80033D58D
:101E8C00E7003393D800B397D70033D7E8009358C3
:101E9C0008013366F7003377150393170801C183E4
:101EAC00935506013355150342074D8FB386A70290
:101EBC00AA85637CD70042979305F5FF63670701FA
:101ECC006375D7009305E5FF4297B306D74033F708
:101EDC00160342064182B3D6160342073385D70256
:101EEC00B367C700368763FCA700C2971387F6FF5A
:101EFC0063E7070163F5A7001387E6FFC297C205E6
:101F0C00898FD98DDDBD63E2D514416763FFE6028D
:101F1C001307F00FB335D7008E0533D5B60017571E
:101F2C000000130767392A970347070013050002BF
:101F3C002E97B305E5406311E5020545E3E7F6F29C
:101F4C0033B5C800134515000DB737070001C1455F
:101F5C00E3E5E6FCE145D1B73358E600B396B600AD
:101F6C003368D80033D3E700935E0801B376D3030C
:101F7C00B397B70033D7E800331EB6003366F700CB
:101F8C0093170801C183135706013353D303C206B9
:101F9C00558F338F67021A85637CE70142971305CF
:101FAC00F3FF636707016375E7011305E3FF4297CE
:101FBC003307E741B376D7033357D703C2063383CE
:101FCC00E70293170601C183D58F3A8663FC67003D
:101FDC00C2971306F7FF63E7070163F56700130663
:101FEC00E7FFC2974205C16E518D9386FEFF1356D3
:101FFC000E0113580501B38767403373D500B376D0
:10200C00DE00330ED302B306D80213570E0133038E
:10201C00C30236931A973308C8026373D7007698B5
:10202C0093560701369863E00703E39407D9C16719
:10203C00FD177D8F4207337EFE00B398B800729770
:10204C008145E3F4E8E27D15ADB38145014531BD31
:10205C00AA858146014601456F00705B411122C47F
:10206C0026C2176400001304648097540000938404
:10207C00E47F058C06C6098411E4B24022449244E4
:10208C00410182807D1493172400A6979C4382976C
:10209C00E5B7411122C426C2175400001304047D75
:1020AC00975400009384847C818C4AC006C6898432
:1020BC00014963159902175400001304247B9754AB
:1020CC0000009384A47A818C89840149631D990052
:1020DC00B240224492440249410182801C400509CD
:1020EC0011048297F9B71C40050911048297F9BFB6
:1020FC00797122D44AD052CC56CA5AC806D626D2A6
:10210C004ECE3A8B2E8A32843689C28A0147635866
:10211C000600370700803344C7001307D002238022
:10212C00E70093F4F8FD930760048D466388F40090
:10213C009307500489466393F4000509D6879308E6
:10214C00C100130881004A87D2852286EF003066D1
:10215C0093077004AA896395F40013761B0029CAAF
:10216C0093076004338B29016397F40203C70900BA
:10217C0093070003631EF700014681465285A28532
:10218C00EF30505511C50546B306264123A0DA00A1
:10219C0083A70A003E9B014681465285A285EF30FB
:1021AC00705311E15AC613070003B24763E2670389
:1021BC00B2474257B2502254B38737411CC3925492
:1021CC000259624AD24A424B4E85F249456182809D
:1021DC009386170036C62380E700C1BF2300C500D5
:1021EC00930725001307B00263D60500B305B04072
:1021FC001307D002A300E50025476352B70641112F
:10220C001307F1003A88A9481303300633E6150387
:10221C00BA867D1713060603A38FC6FE2E86B3C59A
:10222C001503E345C3FE9388E6FF93850503A30FCF
:10223C00B7FE3E864687636D07010147636518014B
:10224C0013071101158FBA973385A740410182807E
:10225C008345070005070506A30FB6FEE9BF9307E4
:10226C0000032301F5009385050393074500A301A3
:10227C00B5003385A7408280197186DEA2DCA6DA10
:10228C002E84CAD8CED6D2D4D6D23A8ADAD0DECEE2
:10229C00E2CC3289B689E6CAEAC8EEC6AA84EF1047
:1022AC001053032C05006285EF00B017032B0400BC
:1022BC0002DC834A840113770B1083270A00AA8B54
:1022CC0079CB138747002320EA009C4308109843DE
:1022DC003AD0D8433AD298473AD4DC473ED6EF406E
:1022EC00901528C46CC4032AC40417E7FF0F130706
:1022FC00A7EE832C8404032D0700832D470093172E
:10230C001A0085836A86EE866685BE853ECEEF40D2
:10231C00607D49EDF2476A86EE866685BE85EF30B4
:10232C00704C6355A008014681466685D285EF3016
:10233C00704B635605009307D002A301F404930776
:10234C007004175A0000130A2A0763F65701175A2C
:10235C000000130AAA06137BBBFF8D4723206401E0
:10236C001CC8014B4E87CA867018A2852685F92E8B
:10237C00FD5C631395177D55F6506654D65446593B
:10238C00B659265A965A065BF64B664CD64C464DB9
:10239C00B64D096182809D07E19B1387870023203E
:1023AC00EA009843DC4338C47CC435BF6686D286C9
:1023BC006685D285EF40007305C563560A00930706
:1023CC00D002A301F40493077004175A0000130AF7
:1023DC002AFFE3F257F9175A0000130AAAFEA5BF09
:1023EC005C407D5713FDFA0D6393E70899475CC079
:1023FC00544013670B403C183EC052869307310380
:10240C00E68518C002C2D688130841032685CD3153
:10241C0093077004D2552A8A631BFD00F55763C5D8
:10242C00F5005C4063D7B708F91A93FAFA0F9307D3
:10243C00500663E55705FD155686130504052EDA7F
:10244C00713B625785462A8BB307A7001CC863C52E
:10245C00E6001840058B19C385071CC88347310358
:10246C00E38207F09307D002A301F404E5BD130740
:10247C007004E31FEDF6ADFF854795BF930760062B
:10248C00639BFA025C40635BB0000CC881E71840A8
:10249C00058B09CF8507AE971CC809A889E718409A
:1024AC008546058B19C39386270014C82CCC014B89
:1024BC0075B7930A7006E25763C9F5001C400CC847
:1024CC00858BEDD793871500C1BF05476344B000DA
:1024DC0009470D8FBA97C9B71C4013F7074015E38E
:1024EC0014485286CA8526858299E30695E91C40D4
:1024FC00898B63980724F2574844E35FF5E63E85E1
:10250C00A5BD13075006637D571928446C4401463A
:10251C008146EF30301C39E985461756000013060A
:10252C00A6EACA8526858299E30795E55257E257B4
:10253C006345F7001C40858BDDDBDE866286CA8531
:10254C0026858299FD57E308F5E2014A930AA40116
:10255C007D5BE257FD17E35CFAF885465686CA8523
:10256C0026858299E30965E1050AE5B7D2576346EA
:10257C00F006854617560000130606E5CA85268523
:10258C008299E30A95DFD2576257D98F81E71C40B5
:10259C00858BB1DFDE866286CA8526858299FD57DA
:1025AC00E30BF5DC814A130BA401FD5BD257B30797
:1025BC00F04063CBFA00E2565286CA852685829992
:1025CC00FD57E316F5F245BB85465A86CA85268526
:1025DC008299E30275DB850AD1BF3C4CE25A63D386
:1025EC005701BE8A63495007014B130DA401FD5DD1
:1025FC00832C8405D68763D30A008147B387FC40BC
:10260C006344FB065257E2576349F7061C40858B1F
:10261C00ADE7E25A5257B3879A41B38AEA4063D383
:10262C005701BE8A63445007014A130BA401FD5B9A
:10263C005257E257998F568763D30A000147998FF7
:10264C00E357FAEA85465A86CA8526858299E304B9
:10265C0075D3050AF1BFD6865286CA85268582991E
:10266C00FD57E313F5F801BB85466A86CA852685B6
:10267C008299E302B5D1050BA5BFDE866286CA85B9
:10268C0026858299FD57E316F5F8F5B1D686330603
:10269C009A01CA8526858299FD57E317F5F8E1B9A9
:1026AC00E25605476344D700858BB5C785465286ED
:1026BC00CA8526858299FD5AE30F55CBDE86628644
:1026CC00CA8526858299E30855CB28446C4401467B
:1026DC008146EF3030001DC9E25613061A00CA8538
:1026EC00FD1626858299E30855C9DA86130604057A
:1026FC00E9B585465686CA8526858299E30D75C748
:10270C00050AE257FD17E346FAFEC5B7014A930ADC
:10271C00A401FD5BFDB785465286CA852685829944
:10272C00E31595FD89B985465686CA852685829915
:10273C00E30365C5050A5C447257998FE345FAFEBD
:10274C005DBB014A930A94017D5BF5B7797152CC5C
:10275C009C493A8A984522D426D24ECE56CA06D6E1
:10276C004AD05AC85EC6AA892E84B284B68A63D36C
:10277C00E700BA879CC00347340419C385079CC083
:10278C001C4093F7070281C79C4089079CC0032912
:10279C00040013796900631A0900130B9401FD5BA3
:1027AC005C449840998F634CF90483473404B336E6
:1027BC00F0001C4093F70702A5EB13063404D685F2
:1027CC004E85029AFD576303F5041C401146984050
:1027DC00998B544481446397C700B384E64063D318
:1027EC00040081441C4418486354F700998FBE942C
:1027FC00014969047D5B63982405014509A8854658
:10280C005A86D6854E85029A631E75017D55B25047
:10281C00225492540259F249624AD24A424BB24B68
:10282C00456182800509ADBF3307D4001306000350
:10283C00A301C7040347540493871600A297890683
:10284C00A381E7049DBF85462286D6854E85029AD4
:10285C00E30E65FB050945B7797122D426D24AD01F
:10286C004ECE06D652CC56CA5AC803C88501930719
:10287C008007AA842E843289B68963EE07019307F8
:10288C0020069386350463ED07016305081C930746
:10289C008005630AF812930A24042301040515A881
:1028AC009307D8F993F7F70F5546E366F6FE1756DC
:1028BC000000130626B48A07B2979C43B29782870E
:1028CC001C43938A2504938647009C4314C323819D
:1028DC00F504854765A29C41084313F60708930548
:1028EC0045000DC21C410CC363D807001307D0026E
:1028FC00B307F040A301E40417560000130606AD1D
:10290C002948A1A013F607041C410CC371DEC207B1
:10291C00C187D9BF90411C431375060893854700A6
:10292C0001C50CC39C4339A0137606040CC37DDA95
:10293C0083D707001307F00617560000130606A9E5
:10294C006304E80E2948A3010404584018C46345E5
:10295C0007000C40ED990CC099E3B68A19CFB68AE2
:10296C0033F70703FD1A3297034707002380EA0069
:10297C003E87B3D70703E37507FFA147631EF80033
:10298C001C40858B91CB58401C4863C7E7009307CC
:10299C000003A38FFAFEFD1AB386564114C84E8766
:1029AC00CA867000A285268555337D5A631C450D59
:1029BC007D55B250225492540259F249624AD24A7D
:1029CC00424B45618280A382050517560000130611
:1029DC00E69F0C40084313F805081C411105630DD4
:1029EC00080208C313F7150001C793E505020CC0D4
:1029FC004148B1FB18401377F7FD18C0A9B79C41AB
:102A0C0093E707029CC193078007A302F4041756AF
:102A1C0000001306E69C75BF13F8050408C3E30316
:102A2C0008FCC207C1837DBF214831BF90411C43C4
:102A3C00CC4913780608138547006306080008C3C1
:102A4C009C438CC301A808C3137606049C4375DA17
:102A5C002390B70023280400B68A91B71C43D041B9
:102A6C0081459386470014C383AA07005685EF104F
:102A7C00406701C53305554148C05C401CC8A301E3
:102A8C00040431BF14485686CA8526858299E30111
:102A9C0045F31C40898B8DE7B2474844E35BF5F066
:102AAC003E8501BF85465686CA8526858299E301F7
:102ABC0065F1050A5C443247998FE345FAFEE9BF9C
:102ACC00014A930A94017D5BF5B75D7122D406D659
:102ADC002A842EDA32DC36DEBAC0BEC2C2C4C6C606
:102AEC0017D5FF0F0325C56E19C51C4D89E72AC6DE
:102AFC00EF10603732450C455418228636CEEF2045
:102B0C00C021B250225461618280AA8517D5FF0F73
:102B1C000325056C05C11C4D91EF011106CE2EC687
:102B2C002AC4EF1040342245B245F24010450561ED
:102B3C006F2080481045EDBF011126CA4AC806CE49
:102B4C0022CC4EC652C4AA842E8909C51C4D99E3C9
:102B5C00EF1060319C4C804481E72685EF10A0304B
:102B6C009757000093878799631CF402C0408357E2
:102B7C00C400A18BB1C71C48A1C7FD59294A1C44EC
:102B8C0083450900FD17B1E91CC463DE07062286E4
:102B9C00A94526855520FD576308F502294535A022
:102BAC0097570000938787976314F4008044C1B74C
:102BBC009757000093878792E31BF4FAC04445BFF4
:102BCC00A28526852D2A55D97D55F2406244D244E2
:102BDC004249B249224A056182801CC4050963D767
:102BEC000700184C63CBE700638945011C40138731
:102BFC00170018C02380B70059B7228626852D28C8
:102C0C00E31F35F7D1B71C401387170018C02947AD
:102C1C002380E70061B7AA8517D5FF0F0325455B15
:102C2C0021BFAA8703C7070085076DFF3385A7401F
:102C3C007D1582806FD00FF6011122CC26CA4AC8AE
:102C4C0006CE4EC6AA842E89328409C51C4D99E342
:102C5C00EF106021975700009387478A631BF40697
:102C6C00C0401C4C1CC48357C400A18BD9C31C4846
:102C7C00C9C31C4808409379F90F1379F90F1D8DBE
:102C8C005C486347F500A2852685EF10000C35E5FE
:102C9C001C440505FD171CC41C401387170018C0E5
:102CAC00238037015C486389A7008357C400858B58
:102CBC0089CBA9476317F900A2852685EF10E00898
:102CCC000DEDF2406244D244B2494A854249056155
:102CDC00828097570000938767846314F4008044C4
:102CEC0049B7974700009387677FE31CF4F6C0440D
:102CFC008DBFA285268521202DDD7D59D9B74111A7
:102D0C0022C426C24AC006C697D4FF0F83A4444CE3
:102D1C002A892E8491C49C4C81E72685EF10A0143F
:102D2C00974700009387877D6317F402C040831791
:102D3C00C4001397070193F687004183B5EA937695
:102D4C00070195EA25472320E90093E7070423169A
:102D5C00F4007D5545A0974700009387277C6314AA
:102D6C00F4008044E9B79747000093872777E31076
:102D7C00F4FCC0446DBF118B15C74C5891C9930717
:102D8C0044046385F5004A85EF10505B232A040246
:102D9C008357C4002322040093F7B7FD2316F400D5
:102DAC001C481CC08357C40093E787002316F4000B
:102DBC001C4889EF8357C4001307002093F707289A
:102DCC006386E700A2854A85EF10C0268317C400EE
:102DDC001397070193F6170041839DC2544823248F
:102DEC000400B306D04014CC1448014581E6137797
:102DFC00070821FFB24022449244024941018280DB
:102E0C0093762700014691E2504810C4F1BFAA887E
:102E1C00138581861C4181EF1387C19018C113055E
:102E2C000000BA8709C51C412324F708BA87D84388
:102E3C007D487D556346E804638D080203A8870826
:102E4C006300080413152700429510C103230810D2
:102E5C0005463316E6003363C30023206810232095
:102E6C00D50889466397D80083264810558E2322AF
:102E7C00C810930617000A07D4C3BA978CC701452C
:102E8C008280011122CC1C49804906CE26CA4AC830
:102E9C004EC652C456C263CA87107D141316240042
:102EAC00138A4501B30ACA009309450183A70A0096
:102EBC004E96184285072A89B354F7026362F706C7
:102ECC0041655288CE880143014E7D15832608004A
:102EDC0091081108B3F7A600C182B3879702B38695
:102EEC0096029A9713D70701E98FB307FE40BA965B
:102EFC0003A7C8FF13D30601E98E337EA700F29710
:102F0C004183158F93D607413697135E0741E98F9E
:102F1C004207D98F23AEF8FEE3FA0AFB1C42BDC769
:102F2C004A85EF10501663460504C16685044E862B
:102F3C008145FD1603250A001C4211063377D50086
:102F4C00998D33F7D7002E97C18341819355074153
:102F5C00898FAE9793D50741758FC207D98F110A08
:102F6C00232EF6FEE3F84AFD93172400CE979843E0
:102F7C001DC72685F2406244D2444249B249224AD6
:102F8C00924A056182801C4289E77D147116E3EC3C
:102F9C00C9FE2328890069B7984309E77D14F11706
:102FAC00E3ECF9FE23288900E9B70145E1B7357157
:102FBC003EDC5C5122CD26CB4AC94EC756C35AC102
:102FCC0006CF52C5DEDEE2DCE6DAEAD8EED636CA49
:102FDC003AD046D2AA84AE8A32844289AE89328BE8
:102FEC009DEB4145EF10000FC8D011ED9746000046
:102FFC009386C64601469305A00E1745000013059F
:10300C006547EF20A014232205002324050023206C
:10301C00050023260500DC508C4389CDD843854719
:10302C002685B397E7009CC5D8C1EF102030DC5043
:10303C0023A0070063520404854706042320F900EB
:10304C00135B1400B707F07F3377FB006314F706AC
:10305C0062578967320B9387F770135BCB001CC3E5
:10306C00B36A5B01E3820A34925791EB97470000F5
:10307C009387873E3EC639A823200900E1B79747BE
:10308C0000009387673D3EC6974700009387F73C47
:10309C0012571CC3FA406A443245DA444A49BA49C9
:1030AC002A4A9A4A0A4BF65B665CD65C465DB65D6C
:1030BC000D618280014681465685DA8556D65AD8EE
:1030CC00EF20506105E1625785471CC3974700000C
:1030DC009387872F3EC69257D5DF9747000093877B
:1030EC00B72E7DB7B808F4085A86D68526851359AD
:1030FC004B01EF1070121379F97F664A2A8463062C
:10310C000912C2573255130919C09395C700B181E2
:10311C00B707F03FDD8D82C097D7FF0F9387470C21
:10312C009043D443EF30803A97D7FF0F9387C70B68
:10313C009043D443EF20707597D7FF0F9387470BBD
:10314C009043D443EF206024AA8B4A85AE8AEF309B
:10315C00502397D7FF0F9387270A9043D443EF2030
:10316C00D0722A86AE865E85D685EF200022AA8B89
:10317C00AE8AEF30D01AAA8D014681465E85D6857F
:10318C00EF205066635B05006E85EF30901F5E8606
:10319C00D686EF20305411C1FD1D0547D9473ADAC8
:1031AC0063E3B70313973D00974700009387C7402D
:1031BC00BA979043D4433255C255EF20B062635353
:1031CC000500FD1D02DA33092A41130CF9FF814B6E
:1031DC0063560C00854BB38B2B41014C63C80D0817
:1031EC006E9C6ED4814C5247A54763E5E70E95471C
:1031FC00054963D6E7009307C7FF3ECA014952470A
:10320C009147630BF7069547630AF70A89476305ED
:10321C00F70A8D4702CE6305F70A85473ECEFD5768
:10322C003EC87D5DC94702D095A076499307000240
:10323C0052999305294363D6B702130500040D8DEB
:10324C00930529413315AB00B3DABA003365550148
:10325C00EF309019B70710FEBE9585477D19BEC09B
:10326C0065BD3385B7403395AA00DDB7B38BBB4141
:10327C00B30CB04102D485BF85473ECE8257634E16
:10328C00F004854705473EC8054D3AD0D450114748
:10329C0023A2060013064701CC4263F4C70426851B
:1032AC00EF00107E2AC631E1974600009386C621B6
:1032BC0001469305A01A91B302CEC9B785473ECEFD
:1032CC008257EE973EC8138D1700EA87E340A0FDA6
:1032DC0085476DBF054902CA89B782573EC83E8DE6
:1032EC0075B78505CCC2060775B7DC50324798C355
:1032FC00B94763E8A71363060912635AB01B13F7A7
:10330C00FD0093173700174700001307E72A3E9775
:10331C0013D94D401C43832A470013770901094AEE
:10332C0015C3174700001307A726105354533255E3
:10333C00C2553ECC1379F900EF20C065E247AA894B
:10334C002E8B0D4A1747000013078724631F0912A1
:10335C004E853E86D686DA85EF20C063AA892E8BF1
:10336C00D257638B071A97D7FF0F938767E9904360
:10337C00D4434E85DA85EF20F046635F0518630071
:10338C000D1AC247635DF0089387FDFF3ECC97D7BB
:10339C00FF0F938767E79043D4434E85DA85EF2080
:1033AC00D04E4248AA892E8B050A5285C2C45ADED9
:1033BC00CEC2EF30007DDA864E86EF20104D97D6C8
:1033CC00FF0F9386E6E49042D4425A89CE8AEF10DE
:1033DC00D07B2648B708C0FC2A8B338AB80063130D
:1033EC00081497D6FF0F938626E39042D4424E855D
:1033FC00CA85EF30A00D5A86D286AA892E89EF2075
:10340C001034634BA05AB7070080B3C747015A86E4
:10341C00BE864E85CA85EF20F03C634C0558B259E8
:10342C00425BF64763C8073639476345B73713978E
:10343C003D009747000093872718BA9703AA070007
:10344C0083AA4700825763D10726634FA0256312D6
:10345C000D5697D7FF0F938727DC9043D4435285A3
:10346C00D685EF2090424E86DA86EF20502D014A09
:10347C00014963580550B2473247850D93891700AF
:10348C00930710032300F70009A39376190081CE4C
:10349C00104354433E85D6853ACCEF20103F62470B
:1034AC00050AAA87AE8A13591940210745B5094A5E
:1034BC00E3880DEA3309B0419377F900139737008D
:1034CC00974700009387470FBA979043D4433255E0
:1034DC00C25513594940974A0000938A6A0BEF2052
:1034EC00D03AAA87AA892E8B014763160900E309F3
:1034FC0007E6BE89ADB59376190099CA03A60A00F2
:10350C0083A64A003E85050AEF203038AA87054776
:10351C0013591940A10AD1BF6ECC6A8879B56ECC0B
:10352C00014861B59307F8FF1397370097470000E0
:10353C0093878708BA979043D443B247C2973EDE2D
:10354C00F247C5CB97D7FF0F938787CDCC43AAC241
:10355C008843EF2020445A86D286EF203077B24938
:10356C002A8A2E8BCA855685EF30605BAAC2EF3053
:10357C0040612A86AE865685CA85EF2030759647FF
:10358C008509528693870703A38FF9FEDA862A8969
:10359C00AE8AEF203025634C050E97D7FF0F93872B
:1035AC0027C68843CC434A86D686EF203072528693
:1035BC00DA86EF20302363470518F257E381F9E6EA
:1035CC0097D7FF0F938747C49043D4435285DA852E
:1035DC00EF20B02B97D7FF0F938707C39043D443AB
:1035EC002A8A2E8B4A85D685EF20302AAA8A2E89E4
:1035FC0095BFD285EF207029F257B249AAC42E8B01
:10360C00BEC2CA855685EF308051AAC6EF306057CE
:10361C002A86AE865685CA85EF20506BB64785093B
:10362C002A8A93870703A38FF9FEF2572E89639298
:10363C00F90697DAFF0F938AAABE03A60A0083A69F
:10364C004A002645DA85EF1050542A86AE865285FC
:10365C00CA85EF20D00E6347A00E264603A50A00AC
:10366C0083A54A00DA86EF2070662A86AE865285DC
:10367C00CA85EF203017E35405DA93070003964907
:10368C001387F9FFBAC203C7F9FFE30AF7FEE24D4D
:10369C0049A897D7FF0F938727B79043D443EF20C0
:1036AC00D01EAA8A2E89B1BFB2475A8CCE8C138BEE
:1036BC0017003E9D97DBFF0F938B0BB55286D6867A
:1036CC006685E285EF20002DEF3060452A89EF30CA
:1036DC00404B5286D686EF20501BAE862A86E2855A
:1036EC006685EF20B05E93060903A30FDBFEDA8933
:1036FC0063136D092A86AE86EF1030495286D68642
:10370C00AA8B2E8BEF20B003634DA0025286D68677
:10371C005E85DA85EF20007C09E5137919006312C8
:10372C0009022685A285EF007040E257238009002C
:10373C0013851D0088C39257E38E079423A037018D
:10374C0091BA6ECCCE8713079003BE8983C6F7FF60
:10375C00FD17639CE600B246E399F6FE6247050747
:10376C003ACC130700032380E60003C707000507C4
:10377C002380E70029BF03A60B0083A64B00050B93
:10378C00EF20B01001468146AA8C2E8CEF2080745D
:10379C0015F541BF724763000710D24605476345D4
:1037AC00D70C06479387374309E7664793076003AF
:1037BC00998F668ADE8A85452685BE9B3E9CEF00E6
:1037CC00B0532A89635E5001635C8001D6876353D2
:1037DC005C01E287B38BFB40B38AFA40330CFC40AC
:1037EC0063810C04F247C5CF63544003CA855286EB
:1037FC002685EF00D06B2286AA852A892685EF00C4
:10380C0010532ACCA2852685EF005032E2473E8425
:10381C0033864C4163874C01A2852685EF003069C5
:10382C002A8485452685EF00304DA2572A8A635A93
:10383C00F0063E86AA852685EF00706752478547BD
:10384C002A8A814C63C7E706814C6391090693175A
:10385C00CB00A9EFB705F07F337BBB0063080B04EB
:10386C00850B050C854C99A0130AFDFF63CA4C010E
:10387C00338A4C41635E0D00B38AAB41814725BF4F
:10388C00A257B30C9A41E6973ED4D28C014ADDB7CD
:10389C00DE8AEA870DB7668ADE8A014925B7668615
:1038AC00A5BF52478547814CE3D0E7FAA25705459F
:1038BC0089CF83270A018D078A07D297C843EF0067
:1038CC00B038930700023385A74062957D8951C1BA
:1038DC0093070002898F1147635AF706F147338526
:1038EC00A740AA9BAA9A2A9C63587001A2855E865F
:1038FC002685EF0010692A8463588001D285628680
:10390C002685EF0010682A8AD257B1C7D285228546
:10391C00EF00707763510504A28581462946268500
:10392C00EF00D026F247FD1D2A84638D0728CA8537
:10393C00814629462685EF007025C2472A896345B2
:10394C00F0085247894763CFE700BDA8E38EE7F83C
:10395C003E85710579B76345A0075247894763D106
:10396C00E7066AC8C24791EFD2858146154626857F
:10397C00EF00D0212A8AAA852285EF00D070E34C73
:10398C00A0AE8257B24993CDF7FF014BD285268565
:10399C00EF00D019E30709D863080B0063062B016D
:1039AC00DA852685EF009018CA852685EF00101859
:1039BC008DBB014A0149F1B7E24D014A014965BC91
:1039CC00F2476AC86387072063585001CA85568638
:1039DC002685EF00105B2A894A8563800C048325B9
:1039EC0049002685EF00D009AA8A11E99746000004
:1039FC00938686AD01469305A02E6FF00FE003264B
:103A0C0009019305C900310509060A06EF00006F8C
:103A1C000546D6852685EF00D056B24742474A8BDD
:103A2C00138C1700BA973ECC93F719002A893EC81D
:103A3C00D2852285EFF0EFC4DA85AA8C930A0503B0
:103A4C002285EF005064D285AA8B4A862685EF002A
:103A5C00F0665445130DFCFFAA85054799E62ACE5E
:103A6C002285EF005062F2452A8726853ACEEF0078
:103A7C00F00BD2477247E289B3E6E700C247DD8E0E
:103A8C0081EE130790036388EA0463547001938AF0
:103A9C001C0323005D01DDBD63CA0B00D247B3EBF1
:103AAC007701C247B3EBFB0063980B04E353E0FED2
:103ABC00A28505462685EF00D04CD2852A84EF00DE
:103ACC00905C6346A00071F513F71A0079D31307C5
:103ADC009003E39EEAFA930790032300FD00CE8740
:103AEC0093069003BE8903C7F9FFFD176305D70A38
:103AFC0005072380E70059BD635BE00013079003C3
:103B0C00E38BEAFC93871A002300FD0041B5E247E2
:103B1C00A30F5CFF63888705A2858146294626850D
:103B2C00EF00D0062A8481462946DA85268563185B
:103B3C002B01EF00B0052A8B2A89050CD5BDEF00AF
:103B4C00F004CA852A8B814629462685EF0010048D
:103B5C002A89E5B7C24785496353F000BE89B2474D
:103B6C00014BBE99A28505462685EF009041D28572
:103B7C002A84EF005051E344A0F601E593F71A00B4
:103B8C00B9FFCE8713070003BE8983C6F7FFFD1765
:103B9C00E38CE6FEE5BB3247E316F7F4930710031C
:103BAC00850D2300F700DDB312579747000093876C
:103BBC00E7893EC6974700009387C789631A07CCED
:103BCC006FF04FCDC2476346F00052478947E3CBB5
:103BDC00E7D88149D2852285EFF0AFAAB247930A84
:103BEC00050333873701C247230057018509E3D307
:103BFC00F9F6A285814629462685EF0020792A848C
:103C0C00D1BF83D7C500011122CC26CA06CE4AC823
:103C1C004EC613F78700AA842E847DE3D8416347F0
:103C2C00E000B8416344E00001457DA858546DDFC5
:103C3C00856603A90400F58F23A00400ADCF684866
:103C4C008357C400918B99C75C401D8D5C5899C3F8
:103C5C003C401D8D5C540C502A86814626858297EB
:103C6C00FD570357C400631DF5009440F54763E40A
:103C7C00D708B70740208507B3D7D700858BA5CFCA
:103C8C001C48232204001CC085677D8F19C7FD5773
:103C9C006314F5009C4091E368C84C5823A02401A0
:103CAC00C1D5930744046385F5002685EF001069A0
:103CBC00232A040295BF0C5085460146268502979F
:103CCC00FD57E31FF5F69C40A5DF75476385E700BC
:103CDC0059476395E70023A02401B9B78357C40063
:103CEC0093E707042316F400F2406244D24442499D
:103CFC00B24905618280136707042316E400EDB70F
:103D0C0083A90501E38209F203A905008D8B23A089
:103D1C00350133093941014791E3D84918C4E355BA
:103D2C0020F11C540C50CA864E8626858297634A15
:103D3C00A0008357C4007D5593E707042316F400B5
:103D4C0065B7AA993309A940D9BF9C49B9CF0111CC
:103D5C0022CC06CE2A8411C51C4D81E72EC6212209
:103D6C00B2459737000093876779639BF5004C4009
:103D7C008397C50095C722856244F240056151B511
:103D8C0097370000938787796394F5000C44CDB77F
:103D9C009737000093878774E39CF5FC4C44C9BFAC
:103DAC00F2406244014505618280014582804111E7
:103DBC0022C406C62A842316B5002317C500232067
:103DCC0005002322050023240500232205062328B1
:103DDC000500232A0500232C0500214681451305E7
:103DEC00C505DD2E97170000938727285CD0971701
:103DFC0000009387872A1CD4971700009387C72E3F
:103E0C005CD49717000093878731B24000D01CD840
:103E1C0022444101828097050000938545F399A2C5
:103E2C00411126C2130680069384F5FFB384C402A5
:103E3C004AC02E8922C406C693854407EF00305A27
:103E4C002A8419C92320050023222501310508C421
:103E5C001386840681454926B24022852244924429
:103E6C000249410182801C4DADE3411122C406C6BA
:103E7C0097070000938767FA1CD523240504232693
:103E8C0005042328050483A701862A846314F500FE
:103E9C0085471CCD22851D2848C02285052808C4CD
:103EAC0022852D2048C448400146914509370844D5
:103EBC000546A545ED3D48440946C945CD3D8547D8
:103ECC00B2401CCC2244410182808280411126C226
:103EDC0083A401869C4C4AC006C622C42A8999E355
:103EEC0026855137938484048044DC40FD1763D6C7
:103EFC0007009C40B1CF8440C5BF0317C40031E715
:103F0C00C177850723220406232004002322040002
:103F1C00232404005CC423280400232A0400232C3B
:103F2C000400214681451305C4057D24232A04027F
:103F3C00232C04022324040423260404B2402285E7
:103F4C00224492440249410182801304840679BFC1
:103F5C0091454A85F13588C02A8451FDB14723200B
:103F6C00F900E9BF797122D44AD04ECE52CC5AC84E
:103F7C005EC606D626D256CA2A892E8A1304850412
:103F8C008149054BFD5B0444832A4400FD1A63D030
:103F9C000A0200406DF8B250225492540259624AFF
:103FAC00D24A424BB24B4E85F2494561828083D74F
:103FBC00C400637BFB008397E40063877701A685CD
:103FCC004A85029AB3E9A90093848406C1B717C540
:103FDC00FF0F1305651782805971CAD02E898395FE
:103FEC00E500A2D4A6D286D63284B68463DC050062
:103FFC008317C90023A0040093F7070895E39307E0
:10400C0000400DA03000EF10201DE34305FE3247A9
:10401C00BD67F98F7977BA9793B717009CC0C5B76E
:10402C0093070004B6501CC02654965406590145FB
:10403C006561828083D7C500011122CC06CE26CAC9
:10404C004AC8898B2E8489CF930774041CC01CC862
:10405C0085475CC8F2406244D24442490561828083
:10406C00740030002A898D3FA245AA844A85EF004E
:10407C00103701ED8317C40013F7072061FFF19B84
:10408C0093E727002316F400C1B797070000938726
:10409C00C7D82324F9028357C40008C008C893E783
:1040AC0007082316F400A2475CC8B24791CF8315CA
:1040BC00E4004A85EF10E01401C98357C400F19B5A
:1040CC0093E717002316F4000355C400C98C23167C
:1040DC00940049B7AA8517C5FF0F0325650F6F001C
:1040EC00103093F5F50F2A966314C50001458280B4
:1040FC0083470500E38DB7FE0505FDB7B3C7A500E3
:10410C008D8BB306C50081E78D4763EEC700AA8788
:10411C006371D50603C7050085078505A38FE7FEE8
:10412C00E3EAD7FE828013773500AA8711CB03C749
:10413C00050085078505A38FE7FE13F73700FDB74C
:10414C0013F7C6FF3308F740130600026344060357
:10415C002E883E86636BE6061388D7FF014663669E
:10416C0007010D071D8F1376C7FFB297B295E3E3D6
:10417C00D7FA828083A3050083A2450083AF850014
:10418C0003AFC50083AE050103AE450103A3850152
:10419C0083A8C50123A0770023A2570003A805021A
:1041AC0023A4F70123A6E70123A8D70123AAC7015B
:1041BC0023AC670023AE1701938747029385450212
:1041CC0023AE07FF3308F74051B7832808001106C8
:1041DC001108232E16FFBDBF3D432A876373C3020C
:1041EC009377F700BDEFADE5937606FF3D8ABA965F
:1041FC000CC34CC30CC74CC74107E36BD7FE11E291
:10420C008280B306C3408A069702000096966780A8
:10421C00A6002307B700A306B7002306B700A30523
:10422C00B7002305B700A304B7002304B700A3030A
:10423C00B7002303B700A302B7002302B700A30102
:10424C00B7002301B700A300B7002300B70082809A
:10425C0093F5F50F93968500D58D93960501D58D25
:10426C0061B7939627009702000096968682E780A6
:10427C0086FA9680C1171D8F3E96E374C3F8A5B7D6
:10428C005C51411122C426C206C64AC02A84AE849F
:10429C0095EB4145813548D011ED9736000093865A
:1042AC00E61B01469305600617350000130505292A
:1042BC00EF00D069232205002324050023200500EC
:1042CC0023260500032944028327C9009DC75850A3
:1042DC00939724005847BA97884331E1054933191D
:1042EC009900130659000A0685452285EF00B00196
:1042FC0005C144C1232425012DA0130610029145AC
:10430C002285EF0050005C502326A900DC47E1F326
:10431C000145B24022449244024941018280184135
:10432C0098C32328050023260500E5B75C514111ED
:10433C0022C426C206C6AA842E8495EB4145593B5D
:10434C00C8D011ED973600009386461101469305AF
:10435C00A008173500001305651EEF00305F2322FF
:10436C00050023240500232005002326050011C881
:10437C00D4505C4013972700DC46BA97984318C07A
:10438C0080C3B2402244924441018280011122CC6C
:10439C004AC84EC603A905012E84B68993864501E9
:1043AC00C16526CA06CEAA8452C40145FD159C429D
:1043BC009106050533F7B7003307C702C183B387EE
:1043CC00C7024E97135807016D8FC29793D90701F7
:1043DC00C207BA9723AEF6FEE34B25FD638D0904A5
:1043EC001C446341F9044C4026858505513D2A8ABD
:1043FC0011ED973600009386260D01469305500B60
:10440C001735000013058513EF0050541048930521
:10441C00C400310509060A06EFF05FCEA285268599
:10442C0031375284930749008A07A29723A2370198
:10443C00050923282401F24022856244D2444249D2
:10444C00B249224A056182804177698FAA8701456A
:10445C0019E3C2074145370700FF7D8F19E321059A
:10446C00A207370700F07D8F19E311059207370774
:10447C0000C07D8F19E309058A0763C90700370758
:10448C000040F98F050599E31305000282801C4159
:10449C002A8793F6770085C293F617000145A1EEA3
:1044AC0093F6270089C685831CC3054582808983C2
:1044BC001CC30945828093960701C182014599E28C
:1044CC00C183414593F6F70F99E22105A18393F639
:1044DC00F70099E21105918393F6370099E20905EB
:1044EC00898393F6170081E68583050599C31CC360
:1044FC008280130500028280411122C42E848545DE
:10450C0006C6BD3B11ED973600009386E6FB0146CF
:10451C00930500141735000013054502EF001043F6
:10452C00B24040C92244054718C9410182809849CC
:10453C001C4A011122CC4AC806CE26CA4EC652C409
:10454C002E8432896354F70032842E89032A0401A5
:10455C00832909011C444C40B3043A0163D39700EE
:10456C008505EFF0FFD111ED973600009386C6F567
:10457C0001469305D01517350000130525FCEF00F7
:10458C00F03C93064501139824003698B68763EAED
:10459C0007051303440193152A0013064901939848
:1045AC0029009A9593075401B298114E63E8F500CF
:1045BC00338485402D147198130E4400C16EFD1E7A
:1045CC0063651603635690008327C8FF7118F1CFFB
:1045DC00F240624404C94249D244B249224A0561BC
:1045EC00828023A0070091075DB7832F0600B3FFDD
:1045FC00DF01638B0F04B6839A82014903A7020083
:10460C0003A403009103337FD701330FFF03B37768
:10461C00D401418091023E9F93570701B387F70362
:10462C004A9F13570F01337FDF01A297BA9713D913
:10463C000701C207B3E7E70123AEF3FEE3E0B2FCE8
:10464C00B387C60123A0270183532600638C030480
:10465C009C42B68F1A8F814203270F0003D42F0080
:10466C00B3F7D7013377D70133077702910F110FC7
:10467C002297169793120701B3E7F20023AEFFFEC1
:10468C008357EFFF83A20F004183B3877702B3F206
:10469C00D2019697BA9793D20701E36FBFFA33878B
:1046AC00C6011CC31106910621BFFD1421BF0111C7
:1046BC0026CA4AC84EC606CE22CC52C493773600C0
:1046CC002A89B284AE8989CFFD17173700001307EA
:1046DC0027FB8A07BA9790438146EFF03FCBAA8914
:1046EC008984D9C48327490285EF4145EFF09F9E09
:1046FC002322A90211ED97360000938626D6014697
:10470C009305E01A17350000130545E3EF0010245C
:10471C002322050023240500232005002326050061
:10472C00032A490203248A0011E8930510274A85BD
:10473C00E1332324AA002A842320050093F71400D4
:10474C0099CBCE8522864A85DD332A8ACE854A8549
:10475C00EFF0DFBDD289858481CC084001E9228647
:10476C00A2854A85E93308C0232005002A84F9B7BD
:10477C00F2406244D2444249224A4E85B249056114
:10478C008280011122CC2E845AC0032B040126CA2C
:10479C00CC41935456401C44269B4AC852C456C222
:1047AC0006CE4EC6AA8A3289130A1B0063C447037D
:1047BC005685EFF0FFACAA890DE197360000938681
:1047CC00A6D001469305901D17350000130505D79B
:1047DC00EF00D01785058607D1BF93074501BE862C
:1047EC00014791066345970863D3040081448A040A
:1047FC00B38697001C48130744011376F9018A0706
:10480C00BA9735CA130800023308C840B6888145E8
:10481C000843910811073315C500C98D23AEB8FEA6
:10482C008325C7FFB3D50501E364F7FE13075401D5
:10483C00114663E7E700818FAD17F19B13864700A4
:10484C00B2968CC299C1130A2B007D1A23A8490178
:10485C005685A285EFF09FADF2406244D2444249A6
:10486C00224A924A024B4E85B2490561828023AEA0
:10487C0006FE0507BDB710431107910623AEC6FE11
:10488C00E36BF7FED9B714499849AA873385E640FC
:10489C006395E6020A07D107D105B386E700BA95FE
:1048AC00F116F115904298416307E6007D55636659
:1048BC00E60005458280E3E5D7FE8280011122CC1B
:1048CC002E844AC8B2852A89228526CA06CE4EC6AF
:1048DC00B284553F15ED81454A85EFF07F9A11ED75
:1048EC0097360000938646BE014693052023173564
:1048FC0000001305A5C4EF00700585471CC9232AC9
:10490C000500F2406244D2444249B24905618280BA
:10491C00854963460500A6878149A2843E84CC4024
:10492C004A85EFF0FF9509E9973600009386C6B9E2
:10493C0001469305002465BF03A804011848938819
:10494C00440193162800930744010A07C16E2326DD
:10495C003501C696BA9713064501514E0143FD1E0B
:10496C003387C4011843B305C40103AF0500B37505
:10497C00D7019A953373DF01B3856540135F0F013F
:10498C00418313D305413307E7411A97135307416A
:10499C00B3F5D5014207330FC5014D8F110E2320FE
:1049AC00EF0033078E00E36DF7FA930554011147BE
:1049BC0063E7B700818FAD17F19B13874700BA9857
:1049CC00416E3297BA8EC6857D1E63E2D502138680
:1049DC00D8FF814763E6C6008D06B3871641F19B6D
:1049EC00BA97F11798431DC72328050119BF9C419D
:1049FC00910E910533F6C7011A9613530641C183E4
:104A0C009A9713D307413376C601C207D18F23AED1
:104A1C00FEFE65BF7D18F1B7797126D2AE8485454F
:104A2C0022D44AD04ECE06D652CC3284B6893A899C
:104A3C00EFF01F8509ED973600009386E6A8014636
:104A4C009305A03017350000130545AF0127370734
:104A5C0010009307F7FFE18F51801374F47F2A8ABB
:104A6C0035E03EC6ADC4280026C4EFF05FA2A246D6
:104A7C0021CD324793070002898FB317F700D58FEA
:104A8C003357A700232AFA003AC6B244232C9A00C3
:104A9C00B3349000850423289A0039C41304D4BC81
:104AAC002A949307500323A089003385A740232021
:104ABC00A900B250225492540259F2495285624ACA
:104ACC0045618280D98F71BF232ADA007DBF6800CF
:104ADC00EFF0FF9BB247130505028544232AFA0029
:104AEC0085472328FA0055BF9307E5BC23A0F9009E
:104AFC0093972400D297884B9604EFF0FF94898CFF
:104B0C00232099007DB73287B3B7E502011106CE99
:104B1C0022CC3386C50289CBB1471CC10144F2407B
:104B2C002285624405618280B28532C64D282A8472
:104B3C007DD532468145EFF02FEAD5B7C5C183A7A5
:104B4C00C5FF011122CC06CE1384C5FF63D3070029
:104B5C003E942AC6EF00C0731387C1861C433245AE
:104B6C0089EB2322040000C36244F24005616F000C
:104B7C004072637DF4001040B306C4006396D70006
:104B8C009443DC43B29614C05CC0F1BF3E87DC4357
:104B9C0099C3E37DF4FE14433306D700631F8600EC
:104BAC001040B29614C33306D700E39FC7FA904364
:104BBC00DC43B29614C35CC345BF6375C400B147F4
:104BCC001CC15DB71040B306C4006396D700944374
:104BDC00DC43B29614C05CC040C379B7828001112B
:104BEC0026CA93843500F1984AC806CE22CC4EC60C
:104BFC00A104B1472A8963F0F404B14463EFB40211
:104C0C004A8579259386C18698423A8431E013848B
:104C1C0001871C4089E781454A85152108C0A68576
:104C2C004A853129FD5963183507B1472320F9000E
:104C3C004A85852531A0E3D304FCB1472320F90034
:104C4C000145F2406244D2444249B2490561828036
:104C5C001C40858F63CE07022D466376F6001CC080
:104C6C003E9404C029A05C40631287029CC24A8512
:104C7C000D251305B4009307440061993307F540E3
:104C8C00E301F5FC3A94898F1CC065BF5CC3C5B7C2
:104C9C0022874040A5BF130435007198E30385FCBF
:104CAC00B305A4404A85612EE31D35FBBDBF1C46F0
:104CBC00FD171CC663DA0700184E63C5E700A94749
:104CCC006394F5006FD05FF71C422E851387170095
:104CDC0018C22380B7008280011122CC26CA4AC890
:104CEC004EC652C406CE2A89AE893284B304D6008D
:104CFC007D5A63149400014509A8834504004E862F
:104D0C004A8575370504E31645FFF2406244D244E8
:104D1C004249B249224A05618280357122CD26CBA7
:104D2C004AC94EC706CF52C556C35AC1DEDEE2DCB5
:104D3C00E6DAAA89AE843289368409C51C4D99E31A
:104D4C00EFF06F92972700009387477B639CF40CDE
:104D5C0083A4490083D7C400A18BFDC79C48EDC731
:104D6C0093070002A304F1029307000302D2230568
:104D7C00F10222C6930B5002973A0000938A0A91D3
:104D8C00054C294B4A848347040099C36391770FE0
:104D9C00B30C2441630D2401E6864A86A6854E8514
:104DAC00253FFD576307F51E9257E6973ED2834782
:104DBC0004006380071EFD571309140002C802CEBD
:104DCC003ECA02CCA309010482D4834509001546CE
:104DDC005685EFF00FB1C2471304190059E913F7C8
:104DEC00070109C713070002A309E10413F78700A1
:104DFC0009C71307B002A309E1048346090013078E
:104E0C00A0026380E608F2474A84814625460347A0
:104E1C00040093051400130707FD6379E60AB5CA6D
:104E2C003ECE85A8972700009387476F6395F400C3
:104E3C0083A4890005B7972700009387276AE39B13
:104E4C00F4F083A4C90039B7A6854E85EFD03FEBAB
:104E5C0001D97D55FA406A44DA444A49BA492A4A8A
:104E6C009A4A0A4BF65B665CD65C0D61828005043F
:104E7C0019BF330555413315AC00C98F3EC8228983
:104E8C00A9B7324793064700184336C66349070251
:104E9C003ACE034704009307E002631FF70403476D
:104EAC0014009307A002631BF702B247090413878F
:104EBC0047009C433AC663C107023ECA35A8330774
:104ECC00E04093E727003ACE3EC8E1B7B3876703CB
:104EDC002E848546BA9725BFFD57C5B7050402CA6F
:104EEC0081468147254603470400930514001307A8
:104EFC0007FD6378E606F1F2834504000D4617259D
:104F0C00000013052579EFF0CF9D11CD97270000F8
:104F1C00938747781D8D93070004B397A7004245EC
:104F2C0005045D8D2AC88345040019461725000029
:104F3C0013058576130914002304B102EFF06F9A60
:104F4C002DC197D7FFFF9387673395E74247B24749
:104F5C001377071009CF91073EC69257D2973ED2CE
:104F6C0015B5B38767032E848546BA97ADBF9D07E9
:104F7C00E19BA107D5B7780097060000938606D66B
:104F8C0026860C084E85EFD02FAFFD572A8AE316E4
:104F9C00F5FC83D7C40093F70704E39C07EA12558A
:104FAC0055BD780097060000938646D326860C08DC
:104FBC004E85EFD07F8AD1BF011122CC06CE2A8438
:104FCC0009C91C4D99E732C62EC4EFE0DFE9324621
:104FDC00A24597270000938767526316F60250404C
:104FEC001C46FD171CC663D00704184E63C7E700A8
:104FFC0093F7F50F29476398E70222856244F24044
:10500C0005616FD07FC397270000938727516314E6
:10501C00F6001044F1B7972700009387274CE31153
:10502C00F6FC504475BF1C4213F5F50F138717009F
:10503C0018C22380B700F24062440561828041119E
:10504C0022C42A842E8523A2018606C6EFB0CFB8CF
:10505C00FD576316F50083A7418691C31CC0B2406F
:10506C00224441018280411122C42E848395E500A3
:10507C0006C60D24634905007C48AA977CC8B2403B
:10508C002244410182808357C4007D777D17F98FBC
:10509C002316F400EDB783D7C500011122CC26CA24
:1050AC004AC84EC606CE93F70710AA842E843289BE
:1050BC00B68991C78395E50089460146BD22835781
:1050CC00C4007D777D17F98F8315E4002316F40057
:1050DC006244F240CE864A86B24942492685D24481
:1050EC0005613DA8411122C42E848395E50006C6B6
:1050FC002D2AFD570357C400631BF500FD77FD17E0
:10510C00F98F2316F400B240224441018280856756
:10511C00D98F2316F40068C8FDB78395E500A5A0C8
:10512C00411122C42A842E85B285368623A201869B
:10513C0006C6EFB06FADFD576316F50083A7418629
:10514C0091C31CC0B240224441018280411197B7E7
:10515C00FF0F83A7E707328806C6AA882E87C847A1
:10516C003686972700009387A75363170800972765
:10517C0000009387A7DD3E88C6869725000093859F
:10518C0025533520B12A411122C42A842E8523A20D
:10519C00018606C6EFB08F9AFD576316F50083A7FC
:1051AC00418691C31CC0B2402244410182803971B6
:1051BC0032D436D62E863410AA8517B5FF0F0325A8
:1051CC00250106CE3AD83EDA42DC46DE36C6EFF092
:1051DC00DFB4F24021618280411122C42A842E85E1
:1051EC00B28523A2018606C6EFB04F98FD57631611
:1051FC00F50083A7418691C31CC0B24022444101F3
:10520C008280411122C42A842E8523A2018606C6DF
:10521C00EFB04F98FD576316F50083A7418691C3F5
:10522C001CC0B240224441018280411122C42A8414
:10523C002E85B285368623A2018606C6EFB0CF96A0
:10524C00FD576316F50083A7418691C31CC0B2407D
:10525C0022444101828085E141116C00014511CA53
:10526C00795581CA834706009CC103450600333536
:10527C00A00041018280014519CA795589CA83472A
:10528C0006009CC1034506003335A0008280828055
:10529C0082808280411122C42A842E85B285368672
:1052AC0023A2018606C6EFB0AF90FD576316F5003A
:1052BC0083A7418691C31CC0B24022444101828025
:1052CC0091CD9307F00F63F7C7009307A0081CC19B
:1052DC007D5582802380C5000545828001458280F2
:1052EC004111194506C6AD200545EFB0EF850111FA
:1052FC0022CC06CEFD472A8463F9B700D9471CC1DE
:10530C007D55F2406244056182807C412E8691C7B6
:10531C0013972500BA97984319EB228532C6A5201E
:10532C00AA85228562443246F240056105A885466D
:10533C000145E308D7FCFD566316D700D9471CC0BE
:10534C000545C1B72E8523A007000297014555BF1F
:10535C00AA8517B5FF0F0325A5E751BF411122C43C
:10536C002A842E85B28523A2018606C6EFB00F8350
:10537C00FD576316F50083A7418691C31CC0B2404C
:10538C002244410182806FB06F80370810007D1875
:10539C000111B377B80013D745013378D80013D374
:1053AC00460122CC8E071374F77F1357D5010E08D4
:1053BC0026CAD98F93D4F5011357D6011373F37FF3
:1053CC0006CE4AC84EC6FD823367070193153500D9
:1053DC000E06330864406398D4226353000F63189D
:1053EC000302B366C700638306581305F8FF09E987
:1053FC002E963335B600BA97AA97B2850544B9A84C
:10540C009306F07F631DD8001304F07F4DA2930622
:10541C00F07F630ED418B7068000558F4285930633
:10542C00800363CBA608FD4663C2A60613080002E0
:10543C003308A840B3160701B358A600331606016B
:10544C00B3E616013336C000558E3357A7002E969F
:10545C003335B6003E97B307A700B28537078000F7
:10546C007D8F6306071405041307F07F630DE44872
:10547C00370780FF7D17F98F13F5150013D715002B
:10548C00598D9395F701C98D858315A2930605FE59
:10549C0093080002B356D70001486308150113089E
:1054AC0000043305A8403318A7003366C800333610
:1054BC00C000558E014761BF598E3336C000DDBF29
:1054CC00630B080A330583400DE4B3E6B70063832E
:1054DC0006429306F5FF99E6B295BA9733B6C50026
:1054EC00B29729BF1308F07F631D0501BA87B285F7
:1054FC0021BF9306F07FE30BD3FEB7068000D58F58
:10550C00AA86130580036343D5067D45634BD502FC
:10551C00130800023308D84033950701B3D8D500DF
:10552C00B395050133651501B335B0004D8DB3D777
:10553C00D700B305C500BA9733B6C500B2971A8425
:10554C0031BF138506FE9308000233D8A70001452E
:10555C006387160113050004158D3395A7004D8D37
:10556C003335A0003365A8008147E1B733E5B700B8
:10557C003335A000D5BF9306140013F5E67F3DE14B
:10558C00B3E6B70029E4638B0636B366C70085C261
:10559C002E96BA973335B600AA97370780007D8FC1
:1055AC00B28511C7370780FF7D17F98F054413F7B4
:1055BC007500630C073413F7F50091466307D73475
:1055CC00138745003335B700AA97BA853DAE99DEEF
:1055DC00598EE30B06E28144B70740008145130462
:1055EC00F07F25A61305F07F638DA6302E963335FC
:1055FC00B600BA97AA971395F7010582B365C50053
:10560C00858336846DB76356000D63110308B3664A
:10561C00C700638D06341305F8FF11E93386C540C6
:10562C0033B5C500998F898FB2850544B1A0930617
:10563C00F07FE30BD8DC9306800363C8A608FD4615
:10564C0063CFA604130800023308A840B316070161
:10565C00B358A60033160601B3E616013336C00064
:10566C00558E3357A7003386C54033B5C5003387F5
:10567C00E740B307A740B2853709800033F727010D
:10568C001DD77D1933F92701AE895DAA9306F07FEA
:10569C00E30FD4F0B7068000558F428569BF93069F
:1056AC0005FE93080002B356D700014863081501A4
:1056BC00130800043305A8403318A7003366C8004C
:1056CC003336C000558E014779BF598E3336C00032
:1056DC00DDBF6305080C330583401DE833E8B700D4
:1056EC00630808281308F5FF631B0800B305B640D0
:1056FC00B307F7403336B600918FB6843DB79308A5
:10570C00F07F63101503BA87B2851304F07F7DA078
:10571C001308F07FE30903FF37088000B3E70701A4
:10572C002A8813058003634605077D45634D0503F1
:10573C0093080002B38808413395170133DE050145
:10574C00B39515013365C501B335B0004D8DB3D795
:10575C000701B305A640B307F7403336B600918F67
:10576C001A84B68411BF130508FE130E0002B3D8B9
:10577C00A70001456308C801130500043305054162
:10578C003395A7004D8D3335A00033E5A800814734
:10579C00C9B733E5B7003335A000D5BF13051400E6
:1057AC001375E57F25E933E8B7003365C70021E8B9
:1057BC00631808006302051CBA87B285B684C5BBA2
:1057CC00E30705DE3388C540B3B805013385E740F0
:1057DC0033051541B7088000B3781501638A0800BA
:1057EC00B305B640B307F7403336B600918FF9B71F
:1057FC00B365A80063860518AA87C2854DBB6318DC
:10580C00080063010518BA87B285B684F5BEE30DAE
:10581C0005BED1B3B389C54033B535013389E740F3
:10582C003309A940370580003375A90025C9B30990
:10583C00B640B307F740333636013389C740B684D8
:10584C00630409064A85EF10C062130785FFFD4704
:10585C0063C2E70693070002998F3319E900B3D7A7
:10586C00F900B3E72701B395E900634F8706018F71
:10587C00930617007D466345D60413070002158F67
:10588C003396E70033D5D500B395E500498EB33593
:10589C00B000D18DB3D7D700014411BBB3E52901BA
:1058AC00C5F181470144D9A84E85EF10805C1305E2
:1058BC00050261BF930785FDB397F900814575B764
:1058CC0005171306000233D7E70001456387C600AE
:1058DC0013050004158D3395A7004D8D3335A000AD
:1058EC00B365A70081474DBF198C370780FF7D1723
:1058FC00F98F75B9BA87B2852A8455B9BA87B2853A
:10590C007DB11304F07F81478145370780007D8F7F
:10591C0011CB05041307F07F630BE406370780FFF8
:10592C007D17F98F1397D70113D53500598D1307B0
:10593C00F07F8D836319E4005D8D814709C5B7073E
:10594C0008000145814413174401B706F07FB207E4
:10595C00F2406244758FB183FE04D98F33E7970010
:10596C004249D244B249BA8505618280428481B1F0
:10597C00BA87B2852A8499B581478145814471B72C
:10598C008147EDBF81458144B707400089B9814704
:10599C00814549BF79714AD013D9450126D24ECEE3
:1059AC0052CC5AC862C49394C50006D622D456CAA7
:1059BC005EC61379F97F2A8A328B368CB18093D9E3
:1059CC00F501630409089307F07F630AF90C935AF5
:1059DC00D5018E04B3E49A00B70A8000B3EA5401EF
:1059EC0013143500130919C0814B1315CC009354B3
:1059FC00C50013554C019375F57F135CFC01F9C17F
:105A0C009307F07F638BF510139534009357DB01EC
:105A1C005D8DB7048000C98C931F3B00138515C0A6
:105A2C00814713972B005D8F7D173946B3C68901CB
:105A3C00B305A9406365E61017260000130686DB44
:105A4C000A073297184332970287B3EAA40063829D
:105A5C000A069DC82685EF10C041930755FF714774
:105A6C006349F702F54A130485FFB38AFA40B394ED
:105A7C008400B35A5A01B3EA9A0033148A0093058E
:105A8C00D0C03389A5408DB7EF10A03E1305050299
:105A9C00E9B7930485FDB31A9A000144CDB7B3EA74
:105AAC00A400638C0A002A84A68A1309F07F8D4B0C
:105ABC002DBF01440149854B0DBF01441309F07FF3
:105ACC00894B25B7B3EF640163820F069DC8268509
